:020000040000FA
:020000000528D1
:040002000034003492
:080008000728EB20DC28A00012
:100010000308A10083012000911A16280F28200050
:1000200091012000210883002008090023001908FD
:100030002000A8002808AA00200037140F280F303D
:100040002000A6005430A500A50B2428A60B2228CA
:1000500008002000031C32280130B5000130BA002E
:10006000B7016E282000B221352820000C14892108
:100070000C108921B60B35281830B600BA1A55284D
:10008000B718492837194C28B7194F28371A52285A
:100090002928B53535082928B53635082928BA352F
:1000A0003A082928BA363A08292820000C147C215D
:1000B0000C107C21B20B55282708B200AD0B552837
:1000C0002708B2007830AD00B80B55282708B200D9
:1000D0007830AD003716B711BA36292820000E182F
:1000E00080288E188A280D15E830B3009621BD0BA4
:1000F0006E288D01FF30BD00303023009A00E028CB
:1001000020000D110D14FF30BD000D112030230013
:100110009A00E02820000D110D16FF30BD000D11D2
:10012000283023009A00E0282000B701B71480305F
:100130002A02AB00031C9D28A72820008C102A0847
:10014000A7001F202708B20007220310292820003B
:100150008C142B08A7001F202708B20007220310C9
:10016000292820000C14A4210C10A421C0201F2039
:100170000C1DB1282000B701BD3023009A00E028F3
:1001800020000C108C198C100C1A8C140800200004
:10019000AC008030A6008030A500A50BCD28A60BB2
:1001A000CB28AC0BC928080020002830C7202830F5
:1001B000C7207830AD00DC2820007830AD00E02882
:1001C0002000371CE0282A08BD3C0319B1289428D8
:0601D0002000B701E02849
:0A01D600003020009800F8302100EE
:1001E00099002100980100302A009A00083022006E
:1001F0009D0000303D00910000303D00B100003016
:100200003D00D10000303E0091001C3021008C00E8
:10021000003020008C00003023008C0000302100D2
:100220008D00003020008D00003023008D00003054
:1002300027008D00833021008E00003020008E00CA
:10024000003023008E00003024008E000030250096
:100250008E00003024009500483023009F0043307A
:1002600023009B00263023009E00903023009D0039
:1002700000302000A2000030A3000030A7000030B2
:10028000AD000030AE000030B1000030AF000030F3
:10029000B2000130B5000130BA000030BB000030C0
:1002A000B400FF30B6000030B7000030B900FF30B6
:1002B000BD002100910191162100920121009301BE
:1002C000210094012000910120009201200093015F
:1002D0002000940127009401270095012700910137
:1002E0002700920102302700970027009801200084
:1002F0008B010B178B1708000430A6002230A500D5
:10030000A50B8029A60B7E290030A6000030A50091
:1003100008000430A6003308A500A50B8D29A60B04
:100320008B290030A6000030A50008000F30200007
:10033000AC000F30A6003308A500A50B9D29A60B25
:100340009B29AC0B9929080001302000AC0010302B
:10035000A600A630A500A50BAB29A60BA929AC0BBE
:10036000A72908003518CD29B518D0293519D32962
:10037000B519D629351AD929B51ADC29351BDF2933
:10038000B51BE2293A18EA29BA18F2293A19F529CF
:10039000BA19F8293A1AFB29FE29A430B30008003B
:1003A0008330B30008006C30B30008005D30B30048
:1003B00008005130B30008004830B3000800403056
:1003C000B30008003A30B300B71C0800B715B710E7
:1003D000B50108003530B300371E08003715371255
:1003E000B51708003130B30008002D30B300080005
:1003F0002B30B30008002730B30008002530B300CD
:1004000008002230B30008002030B30008002000AC
:10041000013027020319282A0230270203192B2A48
:100420000330270203192E2A043027020319312A28
:10043000053027020319342A063027020319372A08
:100440000730270203193A2A0830270203193D2AE8
:100450000130B80008000630B80008000830B800C5
:1004600008000930B80008000A30B80008000B3056
:10047000B80008000B30B80008000B30B8000800C6
:020000040001F9
:02000E00E439D3
:02001000FF3FB0
:00000001FF
